{
  "src/blockchain/contracts/TableContract.sol": {
    "TableContract": {
      "abi": [
        {
          "inputs": [],
          "stateMutability": "nonpayable",
          "type": "constructor"
        },
        {
          "anonymous": false,
          "inputs": [
            {
              "indexed": false,
              "internalType": "uint256",
              "name": "id",
              "type": "uint256"
            },
            {
              "indexed": false,
              "internalType": "string",
              "name": "data",
              "type": "string"
            }
          ],
          "name": "RecordCreated",
          "type": "event"
        },
        {
          "anonymous": false,
          "inputs": [
            {
              "indexed": false,
              "internalType": "uint256",
              "name": "id",
              "type": "uint256"
            }
          ],
          "name": "RecordDeleted",
          "type": "event"
        },
        {
          "anonymous": false,
          "inputs": [
            {
              "indexed": false,
              "internalType": "uint256",
              "name": "id",
              "type": "uint256"
            },
            {
              "indexed": false,
              "internalType": "string",
              "name": "data",
              "type": "string"
            }
          ],
          "name": "RecordUpdated",
          "type": "event"
        },
        {
          "inputs": [
            {
              "internalType": "string",
              "name": "data",
              "type": "string"
            }
          ],
          "name": "createRecord",
          "outputs": [],
          "stateMutability": "nonpayable",
          "type": "function"
        },
        {
          "inputs": [
            {
              "internalType": "uint256",
              "name": "id",
              "type": "uint256"
            }
          ],
          "name": "deleteRecord",
          "outputs": [],
          "stateMutability": "nonpayable",
          "type": "function"
        },
        {
          "inputs": [],
          "name": "getAllRecords",
          "outputs": [
            {
              "components": [
                {
                  "internalType": "uint256",
                  "name": "id",
                  "type": "uint256"
                },
                {
                  "internalType": "string",
                  "name": "data",
                  "type": "string"
                }
              ],
              "internalType": "struct TableContract.Record[]",
              "name": "",
              "type": "tuple[]"
            }
          ],
          "stateMutability": "view",
          "type": "function"
        },
        {
          "inputs": [
            {
              "internalType": "uint256",
              "name": "id",
              "type": "uint256"
            }
          ],
          "name": "getRecord",
          "outputs": [
            {
              "internalType": "uint256",
              "name": "",
              "type": "uint256"
            },
            {
              "internalType": "string",
              "name": "",
              "type": "string"
            }
          ],
          "stateMutability": "view",
          "type": "function"
        },
        {
          "inputs": [
            {
              "internalType": "uint256",
              "name": "id",
              "type": "uint256"
            },
            {
              "internalType": "string",
              "name": "data",
              "type": "string"
            }
          ],
          "name": "updateRecord",
          "outputs": [],
          "stateMutability": "nonpayable",
          "type": "function"
        }
      ],
      "evm": {
        "bytecode": {
          "linkReferences": {},
          "object": "6080604052348015600f57600080fd5b5060018081905550610f01806100266000396000f3fe608060405234801561001057600080fd5b50600436106100575760003560e01c806303e9e6091461005c578063061f98111461008d5780631c631466146100a9578063a7f9fe72146100c5578063db70504b146100e3575b600080fd5b6100766004803603810190610071919061063c565b6100ff565b604051610084929190610708565b60405180910390f35b6100a760048036038101906100a2919061063c565b610218565b005b6100c360048036038101906100be919061086d565b6102c3565b005b6100cd610367565b6040516100da9190610a21565b60405180910390f35b6100fd60048036038101906100f89190610a43565b6104d7565b005b600060606001548310610147576040517f08c379a000000000000000000000000000000000000000000000000000000000815260040161013e90610ad8565b60405180910390fd5b60008060008581526020019081526020016000206040518060400160405290816000820154815260200160018201805461018090610b27565b80601f01602080910402602001604051908101604052809291908181526020018280546101ac90610b27565b80156101f95780601f106101ce576101008083540402835291602001916101f9565b820191906000526020600020905b8154815290600101906020018083116101dc57829003601f168201915b5050505050815250509050806000015181602001519250925050915091565b600154811061025c576040517f08c379a000000000000000000000000000000000000000000000000000000000815260040161025390610ad8565b60405180910390fd5b600080828152602001908152602001600020600080820160009055600182016000610287919061057b565b50507fb88d8be2c9fe5e1ef7087e07e8a84d625e33292845de220553103e7d540ada0c816040516102b89190610b58565b60405180910390a150565b6001548210610307576040517f08c379a00000000000000000000000000000000000000000000000000000000081526004016102fe90610ad8565b60405180910390fd5b8060008084815260200190815260200160002060010190816103299190610d1f565b507f1cbdc1f5cc23b0267e7b11c6580bf9dd18d2b28313a50ea572a09a46b65057d5828260405161035b929190610708565b60405180910390a15050565b60606000600180546103799190610e20565b67ffffffffffffffff81111561039257610391610742565b5b6040519080825280602002602001820160405280156103cb57816020015b6103b86105bb565b8152602001906001900390816103b05790505b5090506000600190505b6001548110156104cf576000808281526020019081526020016000206040518060400160405290816000820154815260200160018201805461041690610b27565b80601f016020809104026020016040519081016040528092919081815260200182805461044290610b27565b801561048f5780601f106104645761010080835404028352916020019161048f565b820191906000526020600020905b81548152906001019060200180831161047257829003601f168201915b505050505081525050826001836104a69190610e20565b815181106104b7576104b6610e54565b5b602002602001018190525080806001019150506103d5565b508091505090565b604051806040016040528060015481526020018281525060008060015481526020019081526020016000206000820151816000015560208201518160010190816105219190610d1f565b509050507ff5b5ef356605bcbd60c8f9554178f47cf88fd5faa38abfa9328f7c0d4aeaf33060015482604051610558929190610708565b60405180910390a16001600081548092919061057390610e83565b919050555050565b50805461058790610b27565b6000825580601f1061059957506105b8565b601f0160209004906000526020600020908101906105b791906105d5565b5b50565b604051806040016040528060008152602001606081525090565b5b808211156105ee5760008160009055506001016105d6565b5090565b6000604051905090565b600080fd5b600080fd5b6000819050919050565b61061981610606565b811461062457600080fd5b50565b60008135905061063681610610565b92915050565b600060208284031215610652576106516105fc565b5b600061066084828501610627565b91505092915050565b61067281610606565b82525050565b600081519050919050565b600082825260208201905092915050565b60005b838110156106b2578082015181840152602081019050610697565b60008484015250505050565b6000601f19601f8301169050919050565b60006106da82610678565b6106e48185610683565b93506106f4818560208601610694565b6106fd816106be565b840191505092915050565b600060408201905061071d6000830185610669565b818103602083015261072f81846106cf565b90509392505050565b600080fd5b600080fd5b7f4e487b7100000000000000000000000000000000000000000000000000000000600052604160045260246000fd5b61077a826106be565b810181811067ffffffffffffffff8211171561079957610798610742565b5b80604052505050565b60006107ac6105f2565b90506107b88282610771565b919050565b600067ffffffffffffffff8211156107d8576107d7610742565b5b6107e1826106be565b9050602081019050919050565b82818337600083830152505050565b600061081061080b846107bd565b6107a2565b90508281526020810184848401111561082c5761082b61073d565b5b6108378482856107ee565b509392505050565b600082601f83011261085457610853610738565b5b81356108648482602086016107fd565b91505092915050565b60008060408385031215610884576108836105fc565b5b600061089285828601610627565b925050602083013567ffffffffffffffff8111156108b3576108b2610601565b5b6108bf8582860161083f565b9150509250929050565b600081519050919050565b600082825260208201905092915050565b6000819050602082019050919050565b6108fe81610606565b82525050565b600082825260208201905092915050565b600061092082610678565b61092a8185610904565b935061093a818560208601610694565b610943816106be565b840191505092915050565b600060408301600083015161096660008601826108f5565b506020830151848203602086015261097e8282610915565b9150508091505092915050565b6000610997838361094e565b905092915050565b6000602082019050919050565b60006109b7826108c9565b6109c181856108d4565b9350836020820285016109d3856108e5565b8060005b85811015610a0f57848403895281516109f0858261098b565b94506109fb8361099f565b925060208a019950506001810190506109d7565b50829750879550505050505092915050565b60006020820190508181036000830152610a3b81846109ac565b905092915050565b600060208284031215610a5957610a586105fc565b5b600082013567ffffffffffffffff811115610a7757610a76610601565b5b610a838482850161083f565b91505092915050565b7f5265636f726420646f6573206e6f742065786973742e00000000000000000000600082015250565b6000610ac2601683610683565b9150610acd82610a8c565b602082019050919050565b60006020820190508181036000830152610af181610ab5565b9050919050565b7f4e487b7100000000000000000000000000000000000000000000000000000000600052602260045260246000fd5b60006002820490506001821680610b3f57607f821691505b602082108103610b5257610b51610af8565b5b50919050565b6000602082019050610b6d6000830184610669565b92915050565b60008190508160005260206000209050919050565b60006020601f8301049050919050565b600082821b905092915050565b600060088302610bd57fffffffffffffffffffffffffffffffffffffffffffffffffffffffffffffffff82610b98565b610bdf8683610b98565b95508019841693508086168417925050509392505050565b6000819050919050565b6000610c1c610c17610c1284610606565b610bf7565b610606565b9050919050565b6000819050919050565b610c3683610c01565b610c4a610c4282610c23565b848454610ba5565b825550505050565b600090565b610c5f610c52565b610c6a818484610c2d565b505050565b5b81811015610c8e57610c83600082610c57565b600181019050610c70565b5050565b601f821115610cd357610ca481610b73565b610cad84610b88565b81016020851015610cbc578190505b610cd0610cc885610b88565b830182610c6f565b50505b505050565b600082821c905092915050565b6000610cf660001984600802610cd8565b1980831691505092915050565b6000610d0f8383610ce5565b9150826002028217905092915050565b610d2882610678565b67ffffffffffffffff811115610d4157610d40610742565b5b610d4b8254610b27565b610d56828285610c92565b600060209050601f831160018114610d895760008415610d77578287015190505b610d818582610d03565b865550610de9565b601f198416610d9786610b73565b60005b82811015610dbf57848901518255600182019150602085019450602081019050610d9a565b86831015610ddc5784890151610dd8601f891682610ce5565b8355505b6001600288020188555050505b505050505050565b7f4e487b7100000000000000000000000000000000000000000000000000000000600052601160045260246000fd5b6000610e2b82610606565b9150610e3683610606565b9250828203905081811115610e4e57610e4d610df1565b5b92915050565b7f4e487b7100000000000000000000000000000000000000000000000000000000600052603260045260246000fd5b6000610e8e82610606565b91507fffffffffffffffffffffffffffffffffffffffffffffffffffffffffffffffff8203610ec057610ebf610df1565b5b60018201905091905056fea2646970667358221220e38a4702b8a1dd2a298ea3ad974aefa1705033b985fc042d1a3988dbc7a0338c64736f6c634300081a0033",
          "opcodes": "PUSH1 0x80 PUSH1 0x40 MSTORE CALLVALUE DUP1 ISZERO PUSH1 0xF JUMPI PUSH1 0x0 DUP1 REVERT JUMPDEST POP PUSH1 0x1 DUP1 DUP2 SWAP1 SSTORE POP PUSH2 0xF01 DUP1 PUSH2 0x26 PUSH1 0x0 CODECOPY PUSH1 0x0 RETURN INVALID PUSH1 0x80 PUSH1 0x40 MSTORE CALLVALUE DUP1 ISZERO PUSH2 0x10 JUMPI PUSH1 0x0 DUP1 REVERT JUMPDEST POP PUSH1 0x4 CALLDATASIZE LT PUSH2 0x57 JUMPI PUSH1 0x0 CALLDATALOAD PUSH1 0xE0 SHR DUP1 PUSH4 0x3E9E609 EQ PUSH2 0x5C JUMPI DUP1 PUSH4 0x61F9811 EQ PUSH2 0x8D JUMPI DUP1 PUSH4 0x1C631466 EQ PUSH2 0xA9 JUMPI DUP1 PUSH4 0xA7F9FE72 EQ PUSH2 0xC5 JUMPI DUP1 PUSH4 0xDB70504B EQ PUSH2 0xE3 JUMPI JUMPDEST PUSH1 0x0 DUP1 REVERT JUMPDEST PUSH2 0x76 PUSH1 0x4 DUP1 CALLDATASIZE SUB DUP2 ADD SWAP1 PUSH2 0x71 SWAP2 SWAP1 PUSH2 0x63C JUMP JUMPDEST PUSH2 0xFF JUMP JUMPDEST PUSH1 0x40 MLOAD PUSH2 0x84 SWAP3 SWAP2 SWAP1 PUSH2 0x708 JUMP JUMPDEST PUSH1 0x40 MLOAD DUP1 SWAP2 SUB SWAP1 RETURN JUMPDEST PUSH2 0xA7 PUSH1 0x4 DUP1 CALLDATASIZE SUB DUP2 ADD SWAP1 PUSH2 0xA2 SWAP2 SWAP1 PUSH2 0x63C JUMP JUMPDEST PUSH2 0x218 JUMP JUMPDEST STOP JUMPDEST PUSH2 0xC3 PUSH1 0x4 DUP1 CALLDATASIZE SUB DUP2 ADD SWAP1 PUSH2 0xBE SWAP2 SWAP1 PUSH2 0x86D JUMP JUMPDEST PUSH2 0x2C3 JUMP JUMPDEST STOP JUMPDEST PUSH2 0xCD PUSH2 0x367 JUMP JUMPDEST PUSH1 0x40 MLOAD PUSH2 0xDA SWAP2 SWAP1 PUSH2 0xA21 JUMP JUMPDEST PUSH1 0x40 MLOAD DUP1 SWAP2 SUB SWAP1 RETURN JUMPDEST PUSH2 0xFD PUSH1 0x4 DUP1 CALLDATASIZE SUB DUP2 ADD SWAP1 PUSH2 0xF8 SWAP2 SWAP1 PUSH2 0xA43 JUMP JUMPDEST PUSH2 0x4D7 JUMP JUMPDEST STOP JUMPDEST PUSH1 0x0 PUSH1 0x60 PUSH1 0x1 SLOAD DUP4 LT PUSH2 0x147 JUMPI PUSH1 0x40 MLOAD PUSH32 0x8C379A000000000000000000000000000000000000000000000000000000000 DUP2 MSTORE PUSH1 0x4 ADD PUSH2 0x13E SWAP1 PUSH2 0xAD8 JUMP JUMPDEST PUSH1 0x40 MLOAD DUP1 SWAP2 SUB SWAP1 REVERT JUMPDEST PUSH1 0x0 DUP1 PUSH1 0x0 DUP6 DUP2 MSTORE PUSH1 0x20 ADD SWAP1 DUP2 MSTORE PUSH1 0x20 ADD PUSH1 0x0 KECCAK256 PUSH1 0x40 MLOAD DUP1 PUSH1 0x40 ADD PUSH1 0x40 MSTORE SWAP1 DUP2 PUSH1 0x0 DUP3 ADD SLOAD DUP2 MSTORE PUSH1 0x20 ADD PUSH1 0x1 DUP3 ADD DUP1 SLOAD PUSH2 0x180 SWAP1 PUSH2 0xB27 JUMP JUMPDEST DUP1 PUSH1 0x1F ADD PUSH1 0x20 DUP1 SWAP2 DIV MUL PUSH1 0x20 ADD PUSH1 0x40 MLOAD SWAP1 DUP2 ADD PUSH1 0x40 MSTORE DUP1 SWAP3 SWAP2 SWAP1 DUP2 DUP2 MSTORE PUSH1 0x20 ADD DUP3 DUP1 SLOAD PUSH2 0x1AC SWAP1 PUSH2 0xB27 JUMP JUMPDEST DUP1 ISZERO PUSH2 0x1F9 JUMPI DUP1 PUSH1 0x1F LT PUSH2 0x1CE JUMPI PUSH2 0x100 DUP1 DUP4 SLOAD DIV MUL DUP4 MSTORE SWAP2 PUSH1 0x20 ADD SWAP2 PUSH2 0x1F9 JUMP JUMPDEST DUP3 ADD SWAP2 SWAP1 PUSH1 0x0 MSTORE PUSH1 0x20 PUSH1 0x0 KECCAK256 SWAP1 JUMPDEST DUP2 SLOAD DUP2 MSTORE SWAP1 PUSH1 0x1 ADD SWAP1 PUSH1 0x20 ADD DUP1 DUP4 GT PUSH2 0x1DC JUMPI DUP3 SWAP1 SUB PUSH1 0x1F AND DUP3 ADD SWAP2 JUMPDEST POP POP POP POP POP DUP2 MSTORE POP POP SWAP1 POP DUP1 PUSH1 0x0 ADD MLOAD DUP2 PUSH1 0x20 ADD MLOAD SWAP3 POP SWAP3 POP POP SWAP2 POP SWAP2 JUMP JUMPDEST PUSH1 0x1 SLOAD DUP2 LT PUSH2 0x25C JUMPI PUSH1 0x40 MLOAD PUSH32 0x8C379A000000000000000000000000000000000000000000000000000000000 DUP2 MSTORE PUSH1 0x4 ADD PUSH2 0x253 SWAP1 PUSH2 0xAD8 JUMP JUMPDEST PUSH1 0x40 MLOAD DUP1 SWAP2 SUB SWAP1 REVERT JUMPDEST PUSH1 0x0 DUP1 DUP3 DUP2 MSTORE PUSH1 0x20 ADD SWAP1 DUP2 MSTORE PUSH1 0x20 ADD PUSH1 0x0 KECCAK256 PUSH1 0x0 DUP1 DUP3 ADD PUSH1 0x0 SWAP1 SSTORE PUSH1 0x1 DUP3 ADD PUSH1 0x0 PUSH2 0x287 SWAP2 SWAP1 PUSH2 0x57B JUMP JUMPDEST POP POP PUSH32 0xB88D8BE2C9FE5E1EF7087E07E8A84D625E33292845DE220553103E7D540ADA0C DUP2 PUSH1 0x40 MLOAD PUSH2 0x2B8 SWAP2 SWAP1 PUSH2 0xB58 JUMP JUMPDEST PUSH1 0x40 MLOAD DUP1 SWAP2 SUB SWAP1 LOG1 POP JUMP JUMPDEST PUSH1 0x1 SLOAD DUP3 LT PUSH2 0x307 JUMPI PUSH1 0x40 MLOAD PUSH32 0x8C379A000000000000000000000000000000000000000000000000000000000 DUP2 MSTORE PUSH1 0x4 ADD PUSH2 0x2FE SWAP1 PUSH2 0xAD8 JUMP JUMPDEST PUSH1 0x40 MLOAD DUP1 SWAP2 SUB SWAP1 REVERT JUMPDEST DUP1 PUSH1 0x0 DUP1 DUP5 DUP2 MSTORE PUSH1 0x20 ADD SWAP1 DUP2 MSTORE PUSH1 0x20 ADD PUSH1 0x0 KECCAK256 PUSH1 0x1 ADD SWAP1 DUP2 PUSH2 0x329 SWAP2 SWAP1 PUSH2 0xD1F JUMP JUMPDEST POP PUSH32 0x1CBDC1F5CC23B0267E7B11C6580BF9DD18D2B28313A50EA572A09A46B65057D5 DUP3 DUP3 PUSH1 0x40 MLOAD PUSH2 0x35B SWAP3 SWAP2 SWAP1 PUSH2 0x708 JUMP JUMPDEST PUSH1 0x40 MLOAD DUP1 SWAP2 SUB SWAP1 LOG1 POP POP JUMP JUMPDEST PUSH1 0x60 PUSH1 0x0 PUSH1 0x1 DUP1 SLOAD PUSH2 0x379 SWAP2 SWAP1 PUSH2 0xE20 JUMP JUMPDEST PUSH8 0xFFFFFFFFFFFFFFFF DUP2 GT ISZERO PUSH2 0x392 JUMPI PUSH2 0x391 PUSH2 0x742 JUMP JUMPDEST JUMPDEST PUSH1 0x40 MLOAD SWAP1 DUP1 DUP3 MSTORE DUP1 PUSH1 0x20 MUL PUSH1 0x20 ADD DUP3 ADD PUSH1 0x40 MSTORE DUP1 ISZERO PUSH2 0x3CB JUMPI DUP2 PUSH1 0x20 ADD JUMPDEST PUSH2 0x3B8 PUSH2 0x5BB JUMP JUMPDEST DUP2 MSTORE PUSH1 0x20 ADD SWAP1 PUSH1 0x1 SWAP1 SUB SWAP1 DUP2 PUSH2 0x3B0 JUMPI SWAP1 POP JUMPDEST POP SWAP1 POP PUSH1 0x0 PUSH1 0x1 SWAP1 POP JUMPDEST PUSH1 0x1 SLOAD DUP2 LT ISZERO PUSH2 0x4CF JUMPI PUSH1 0x0 DUP1 DUP3 DUP2 MSTORE PUSH1 0x20 ADD SWAP1 DUP2 MSTORE PUSH1 0x20 ADD PUSH1 0x0 KECCAK256 PUSH1 0x40 MLOAD DUP1 PUSH1 0x40 ADD PUSH1 0x40 MSTORE SWAP1 DUP2 PUSH1 0x0 DUP3 ADD SLOAD DUP2 MSTORE PUSH1 0x20 ADD PUSH1 0x1 DUP3 ADD DUP1 SLOAD PUSH2 0x416 SWAP1 PUSH2 0xB27 JUMP JUMPDEST DUP1 PUSH1 0x1F ADD PUSH1 0x20 DUP1 SWAP2 DIV MUL PUSH1 0x20 ADD PUSH1 0x40 MLOAD SWAP1 DUP2 ADD PUSH1 0x40 MSTORE DUP1 SWAP3 SWAP2 SWAP1 DUP2 DUP2 MSTORE PUSH1 0x20 ADD DUP3 DUP1 SLOAD PUSH2 0x442 SWAP1 PUSH2 0xB27 JUMP JUMPDEST DUP1 ISZERO PUSH2 0x48F JUMPI DUP1 PUSH1 0x1F LT PUSH2 0x464 JUMPI PUSH2 0x100 DUP1 DUP4 SLOAD DIV MUL DUP4 MSTORE SWAP2 PUSH1 0x20 ADD SWAP2 PUSH2 0x48F JUMP JUMPDEST DUP3 ADD SWAP2 SWAP1 PUSH1 0x0 MSTORE PUSH1 0x20 PUSH1 0x0 KECCAK256 SWAP1 JUMPDEST DUP2 SLOAD DUP2 MSTORE SWAP1 PUSH1 0x1 ADD SWAP1 PUSH1 0x20 ADD DUP1 DUP4 GT PUSH2 0x472 JUMPI DUP3 SWAP1 SUB PUSH1 0x1F AND DUP3 ADD SWAP2 JUMPDEST POP POP POP POP POP DUP2 MSTORE POP POP DUP3 PUSH1 0x1 DUP4 PUSH2 0x4A6 SWAP2 SWAP1 PUSH2 0xE20 JUMP JUMPDEST DUP2 MLOAD DUP2 LT PUSH2 0x4B7 JUMPI PUSH2 0x4B6 PUSH2 0xE54 JUMP JUMPDEST JUMPDEST PUSH1 0x20 MUL PUSH1 0x20 ADD ADD DUP2 SWAP1 MSTORE POP DUP1 DUP1 PUSH1 0x1 ADD SWAP2 POP POP PUSH2 0x3D5 JUMP JUMPDEST POP DUP1 SWAP2 POP POP SWAP1 JUMP JUMPDEST PUSH1 0x40 MLOAD DUP1 PUSH1 0x40 ADD PUSH1 0x40 MSTORE DUP1 PUSH1 0x1 SLOAD DUP2 MSTORE PUSH1 0x20 ADD DUP3 DUP2 MSTORE POP PUSH1 0x0 DUP1 PUSH1 0x1 SLOAD DUP2 MSTORE PUSH1 0x20 ADD SWAP1 DUP2 MSTORE PUSH1 0x20 ADD PUSH1 0x0 KECCAK256 PUSH1 0x0 DUP3 ADD MLOAD DUP2 PUSH1 0x0 ADD SSTORE PUSH1 0x20 DUP3 ADD MLOAD DUP2 PUSH1 0x1 ADD SWAP1 DUP2 PUSH2 0x521 SWAP2 SWAP1 PUSH2 0xD1F JUMP JUMPDEST POP SWAP1 POP POP PUSH32 0xF5B5EF356605BCBD60C8F9554178F47CF88FD5FAA38ABFA9328F7C0D4AEAF330 PUSH1 0x1 SLOAD DUP3 PUSH1 0x40 MLOAD PUSH2 0x558 SWAP3 SWAP2 SWAP1 PUSH2 0x708 JUMP JUMPDEST PUSH1 0x40 MLOAD DUP1 SWAP2 SUB SWAP1 LOG1 PUSH1 0x1 PUSH1 0x0 DUP2 SLOAD DUP1 SWAP3 SWAP2 SWAP1 PUSH2 0x573 SWAP1 PUSH2 0xE83 JUMP JUMPDEST SWAP2 SWAP1 POP SSTORE POP POP JUMP JUMPDEST POP DUP1 SLOAD PUSH2 0x587 SWAP1 PUSH2 0xB27 JUMP JUMPDEST PUSH1 0x0 DUP3 SSTORE DUP1 PUSH1 0x1F LT PUSH2 0x599 JUMPI POP PUSH2 0x5B8 JUMP JUMPDEST PUSH1 0x1F ADD PUSH1 0x20 SWAP1 DIV SWAP1 PUSH1 0x0 MSTORE PUSH1 0x20 PUSH1 0x0 KECCAK256 SWAP1 DUP2 ADD SWAP1 PUSH2 0x5B7 SWAP2 SWAP1 PUSH2 0x5D5 JUMP JUMPDEST JUMPDEST POP JUMP JUMPDEST PUSH1 0x40 MLOAD DUP1 PUSH1 0x40 ADD PUSH1 0x40 MSTORE DUP1 PUSH1 0x0 DUP2 MSTORE PUSH1 0x20 ADD PUSH1 0x60 DUP2 MSTORE POP SWAP1 JUMP JUMPDEST JUMPDEST DUP1 DUP3 GT ISZERO PUSH2 0x5EE JUMPI PUSH1 0x0 DUP2 PUSH1 0x0 SWAP1 SSTORE POP PUSH1 0x1 ADD PUSH2 0x5D6 JUMP JUMPDEST POP SWAP1 JUMP JUMPDEST PUSH1 0x0 PUSH1 0x40 MLOAD SWAP1 POP SWAP1 JUMP JUMPDEST PUSH1 0x0 DUP1 REVERT JUMPDEST PUSH1 0x0 DUP1 REVERT JUMPDEST PUSH1 0x0 DUP2 SWAP1 POP SWAP2 SWAP1 POP JUMP JUMPDEST PUSH2 0x619 DUP2 PUSH2 0x606 JUMP JUMPDEST DUP2 EQ PUSH2 0x624 JUMPI PUSH1 0x0 DUP1 REVERT JUMPDEST POP JUMP JUMPDEST PUSH1 0x0 DUP2 CALLDATALOAD SWAP1 POP PUSH2 0x636 DUP2 PUSH2 0x610 JUMP JUMPDEST SWAP3 SWAP2 POP POP JUMP JUMPDEST PUSH1 0x0 PUSH1 0x20 DUP3 DUP5 SUB SLT ISZERO PUSH2 0x652 JUMPI PUSH2 0x651 PUSH2 0x5FC JUMP JUMPDEST JUMPDEST PUSH1 0x0 PUSH2 0x660 DUP5 DUP3 DUP6 ADD PUSH2 0x627 JUMP JUMPDEST SWAP2 POP POP SWAP3 SWAP2 POP POP JUMP JUMPDEST PUSH2 0x672 DUP2 PUSH2 0x606 JUMP JUMPDEST DUP3 MSTORE POP POP JUMP JUMPDEST PUSH1 0x0 DUP2 MLOAD SWAP1 POP SWAP2 SWAP1 POP JUMP JUMPDEST PUSH1 0x0 DUP3 DUP3 MSTORE PUSH1 0x20 DUP3 ADD SWAP1 POP SWAP3 SWAP2 POP POP JUMP JUMPDEST PUSH1 0x0 JUMPDEST DUP4 DUP2 LT ISZERO PUSH2 0x6B2 JUMPI DUP1 DUP3 ADD MLOAD DUP2 DUP5 ADD MSTORE PUSH1 0x20 DUP2 ADD SWAP1 POP PUSH2 0x697 JUMP JUMPDEST PUSH1 0x0 DUP5 DUP5 ADD MSTORE POP POP POP POP JUMP JUMPDEST PUSH1 0x0 PUSH1 0x1F NOT PUSH1 0x1F DUP4 ADD AND SWAP1 POP SWAP2 SWAP1 POP JUMP JUMPDEST PUSH1 0x0 PUSH2 0x6DA DUP3 PUSH2 0x678 JUMP JUMPDEST PUSH2 0x6E4 DUP2 DUP6 PUSH2 0x683 JUMP JUMPDEST SWAP4 POP PUSH2 0x6F4 DUP2 DUP6 PUSH1 0x20 DUP7 ADD PUSH2 0x694 JUMP JUMPDEST PUSH2 0x6FD DUP2 PUSH2 0x6BE JUMP JUMPDEST DUP5 ADD SWAP2 POP POP SWAP3 SWAP2 POP POP JUMP JUMPDEST PUSH1 0x0 PUSH1 0x40 DUP3 ADD SWAP1 POP PUSH2 0x71D PUSH1 0x0 DUP4 ADD DUP6 PUSH2 0x669 JUMP JUMPDEST DUP2 DUP2 SUB PUSH1 0x20 DUP4 ADD MSTORE PUSH2 0x72F DUP2 DUP5 PUSH2 0x6CF JUMP JUMPDEST SWAP1 POP SWAP4 SWAP3 POP POP POP JUMP JUMPDEST PUSH1 0x0 DUP1 REVERT JUMPDEST PUSH1 0x0 DUP1 REVERT JUMPDEST PUSH32 0x4E487B7100000000000000000000000000000000000000000000000000000000 PUSH1 0x0 MSTORE PUSH1 0x41 PUSH1 0x4 MSTORE PUSH1 0x24 PUSH1 0x0 REVERT JUMPDEST PUSH2 0x77A DUP3 PUSH2 0x6BE JUMP JUMPDEST DUP2 ADD DUP2 DUP2 LT PUSH8 0xFFFFFFFFFFFFFFFF DUP3 GT OR ISZERO PUSH2 0x799 JUMPI PUSH2 0x798 PUSH2 0x742 JUMP JUMPDEST JUMPDEST DUP1 PUSH1 0x40 MSTORE POP POP POP JUMP JUMPDEST PUSH1 0x0 PUSH2 0x7AC PUSH2 0x5F2 JUMP JUMPDEST SWAP1 POP PUSH2 0x7B8 DUP3 DUP3 PUSH2 0x771 JUMP JUMPDEST SWAP2 SWAP1 POP JUMP JUMPDEST PUSH1 0x0 PUSH8 0xFFFFFFFFFFFFFFFF DUP3 GT ISZERO PUSH2 0x7D8 JUMPI PUSH2 0x7D7 PUSH2 0x742 JUMP JUMPDEST JUMPDEST PUSH2 0x7E1 DUP3 PUSH2 0x6BE JUMP JUMPDEST SWAP1 POP PUSH1 0x20 DUP2 ADD SWAP1 POP SWAP2 SWAP1 POP JUMP JUMPDEST DUP3 DUP2 DUP4 CALLDATACOPY PUSH1 0x0 DUP4 DUP4 ADD MSTORE POP POP POP JUMP JUMPDEST PUSH1 0x0 PUSH2 0x810 PUSH2 0x80B DUP5 PUSH2 0x7BD JUMP JUMPDEST PUSH2 0x7A2 JUMP JUMPDEST SWAP1 POP DUP3 DUP2 MSTORE PUSH1 0x20 DUP2 ADD DUP5 DUP5 DUP5 ADD GT ISZERO PUSH2 0x82C JUMPI PUSH2 0x82B PUSH2 0x73D JUMP JUMPDEST JUMPDEST PUSH2 0x837 DUP5 DUP3 DUP6 PUSH2 0x7EE JUMP JUMPDEST POP SWAP4 SWAP3 POP POP POP JUMP JUMPDEST PUSH1 0x0 DUP3 PUSH1 0x1F DUP4 ADD SLT PUSH2 0x854 JUMPI PUSH2 0x853 PUSH2 0x738 JUMP JUMPDEST JUMPDEST DUP2 CALLDATALOAD PUSH2 0x864 DUP5 DUP3 PUSH1 0x20 DUP7 ADD PUSH2 0x7FD JUMP JUMPDEST SWAP2 POP POP SWAP3 SWAP2 POP POP JUMP JUMPDEST PUSH1 0x0 DUP1 PUSH1 0x40 DUP4 DUP6 SUB SLT ISZERO PUSH2 0x884 JUMPI PUSH2 0x883 PUSH2 0x5FC JUMP JUMPDEST JUMPDEST PUSH1 0x0 PUSH2 0x892 DUP6 DUP3 DUP7 ADD PUSH2 0x627 JUMP JUMPDEST SWAP3 POP POP PUSH1 0x20 DUP4 ADD CALLDATALOAD PUSH8 0xFFFFFFFFFFFFFFFF DUP2 GT ISZERO PUSH2 0x8B3 JUMPI PUSH2 0x8B2 PUSH2 0x601 JUMP JUMPDEST JUMPDEST PUSH2 0x8BF DUP6 DUP3 DUP7 ADD PUSH2 0x83F JUMP JUMPDEST SWAP2 POP POP SWAP3 POP SWAP3 SWAP1 POP JUMP JUMPDEST PUSH1 0x0 DUP2 MLOAD SWAP1 POP SWAP2 SWAP1 POP JUMP JUMPDEST PUSH1 0x0 DUP3 DUP3 MSTORE PUSH1 0x20 DUP3 ADD SWAP1 POP SWAP3 SWAP2 POP POP JUMP JUMPDEST PUSH1 0x0 DUP2 SWAP1 POP PUSH1 0x20 DUP3 ADD SWAP1 POP SWAP2 SWAP1 POP JUMP JUMPDEST PUSH2 0x8FE DUP2 PUSH2 0x606 JUMP JUMPDEST DUP3 MSTORE POP POP JUMP JUMPDEST PUSH1 0x0 DUP3 DUP3 MSTORE PUSH1 0x20 DUP3 ADD SWAP1 POP SWAP3 SWAP2 POP POP JUMP JUMPDEST PUSH1 0x0 PUSH2 0x920 DUP3 PUSH2 0x678 JUMP JUMPDEST PUSH2 0x92A DUP2 DUP6 PUSH2 0x904 JUMP JUMPDEST SWAP4 POP PUSH2 0x93A DUP2 DUP6 PUSH1 0x20 DUP7 ADD PUSH2 0x694 JUMP JUMPDEST PUSH2 0x943 DUP2 PUSH2 0x6BE JUMP JUMPDEST DUP5 ADD SWAP2 POP POP SWAP3 SWAP2 POP POP JUMP JUMPDEST PUSH1 0x0 PUSH1 0x40 DUP4 ADD PUSH1 0x0 DUP4 ADD MLOAD PUSH2 0x966 PUSH1 0x0 DUP7 ADD DUP3 PUSH2 0x8F5 JUMP JUMPDEST POP PUSH1 0x20 DUP4 ADD MLOAD DUP5 DUP3 SUB PUSH1 0x20 DUP7 ADD MSTORE PUSH2 0x97E DUP3 DUP3 PUSH2 0x915 JUMP JUMPDEST SWAP2 POP POP DUP1 SWAP2 POP POP SWAP3 SWAP2 POP POP JUMP JUMPDEST PUSH1 0x0 PUSH2 0x997 DUP4 DUP4 PUSH2 0x94E JUMP JUMPDEST SWAP1 POP SWAP3 SWAP2 POP POP JUMP JUMPDEST PUSH1 0x0 PUSH1 0x20 DUP3 ADD SWAP1 POP SWAP2 SWAP1 POP JUMP JUMPDEST PUSH1 0x0 PUSH2 0x9B7 DUP3 PUSH2 0x8C9 JUMP JUMPDEST PUSH2 0x9C1 DUP2 DUP6 PUSH2 0x8D4 JUMP JUMPDEST SWAP4 POP DUP4 PUSH1 0x20 DUP3 MUL DUP6 ADD PUSH2 0x9D3 DUP6 PUSH2 0x8E5 JUMP JUMPDEST DUP1 PUSH1 0x0 JUMPDEST DUP6 DUP2 LT ISZERO PUSH2 0xA0F JUMPI DUP5 DUP5 SUB DUP10 MSTORE DUP2 MLOAD PUSH2 0x9F0 DUP6 DUP3 PUSH2 0x98B JUMP JUMPDEST SWAP5 POP PUSH2 0x9FB DUP4 PUSH2 0x99F JUMP JUMPDEST SWAP3 POP PUSH1 0x20 DUP11 ADD SWAP10 POP POP PUSH1 0x1 DUP2 ADD SWAP1 POP PUSH2 0x9D7 JUMP JUMPDEST POP DUP3 SWAP8 POP DUP8 SWAP6 POP POP POP POP POP POP SWAP3 SWAP2 POP POP JUMP JUMPDEST PUSH1 0x0 PUSH1 0x20 DUP3 ADD SWAP1 POP DUP2 DUP2 SUB PUSH1 0x0 DUP4 ADD MSTORE PUSH2 0xA3B DUP2 DUP5 PUSH2 0x9AC JUMP JUMPDEST SWAP1 POP SWAP3 SWAP2 POP POP JUMP JUMPDEST PUSH1 0x0 PUSH1 0x20 DUP3 DUP5 SUB SLT ISZERO PUSH2 0xA59 JUMPI PUSH2 0xA58 PUSH2 0x5FC JUMP JUMPDEST JUMPDEST PUSH1 0x0 DUP3 ADD CALLDATALOAD PUSH8 0xFFFFFFFFFFFFFFFF DUP2 GT ISZERO PUSH2 0xA77 JUMPI PUSH2 0xA76 PUSH2 0x601 JUMP JUMPDEST JUMPDEST PUSH2 0xA83 DUP5 DUP3 DUP6 ADD PUSH2 0x83F JUMP JUMPDEST SWAP2 POP POP SWAP3 SWAP2 POP POP JUMP JUMPDEST PUSH32 0x5265636F726420646F6573206E6F742065786973742E00000000000000000000 PUSH1 0x0 DUP3 ADD MSTORE POP JUMP JUMPDEST PUSH1 0x0 PUSH2 0xAC2 PUSH1 0x16 DUP4 PUSH2 0x683 JUMP JUMPDEST SWAP2 POP PUSH2 0xACD DUP3 PUSH2 0xA8C JUMP JUMPDEST PUSH1 0x20 DUP3 ADD SWAP1 POP SWAP2 SWAP1 POP JUMP JUMPDEST PUSH1 0x0 PUSH1 0x20 DUP3 ADD SWAP1 POP DUP2 DUP2 SUB PUSH1 0x0 DUP4 ADD MSTORE PUSH2 0xAF1 DUP2 PUSH2 0xAB5 JUMP JUMPDEST SWAP1 POP SWAP2 SWAP1 POP JUMP JUMPDEST PUSH32 0x4E487B7100000000000000000000000000000000000000000000000000000000 PUSH1 0x0 MSTORE PUSH1 0x22 PUSH1 0x4 MSTORE PUSH1 0x24 PUSH1 0x0 REVERT JUMPDEST PUSH1 0x0 PUSH1 0x2 DUP3 DIV SWAP1 POP PUSH1 0x1 DUP3 AND DUP1 PUSH2 0xB3F JUMPI PUSH1 0x7F DUP3 AND SWAP2 POP JUMPDEST PUSH1 0x20 DUP3 LT DUP2 SUB PUSH2 0xB52 JUMPI PUSH2 0xB51 PUSH2 0xAF8 JUMP JUMPDEST JUMPDEST POP SWAP2 SWAP1 POP JUMP JUMPDEST PUSH1 0x0 PUSH1 0x20 DUP3 ADD SWAP1 POP PUSH2 0xB6D PUSH1 0x0 DUP4 ADD DUP5 PUSH2 0x669 JUMP JUMPDEST SWAP3 SWAP2 POP POP JUMP JUMPDEST PUSH1 0x0 DUP2 SWAP1 POP DUP2 PUSH1 0x0 MSTORE PUSH1 0x20 PUSH1 0x0 KECCAK256 SWAP1 POP SWAP2 SWAP1 POP JUMP JUMPDEST PUSH1 0x0 PUSH1 0x20 PUSH1 0x1F DUP4 ADD DIV SWAP1 POP SWAP2 SWAP1 POP JUMP JUMPDEST PUSH1 0x0 DUP3 DUP3 SHL SWAP1 POP SWAP3 SWAP2 POP POP JUMP JUMPDEST PUSH1 0x0 PUSH1 0x8 DUP4 MUL PUSH2 0xBD5 PUSH32 0xFFFFFFFFFFFFFFFFFFFFFFFFFFFFFFFFFFFFFFFFFFFFFFFFFFFFFFFFFFFFFFFF DUP3 PUSH2 0xB98 JUMP JUMPDEST PUSH2 0xBDF DUP7 DUP4 PUSH2 0xB98 JUMP JUMPDEST SWAP6 POP DUP1 NOT DUP5 AND SWAP4 POP DUP1 DUP7 AND DUP5 OR SWAP3 POP POP POP SWAP4 SWAP3 POP POP POP JUMP JUMPDEST PUSH1 0x0 DUP2 SWAP1 POP SWAP2 SWAP1 POP JUMP JUMPDEST PUSH1 0x0 PUSH2 0xC1C PUSH2 0xC17 PUSH2 0xC12 DUP5 PUSH2 0x606 JUMP JUMPDEST PUSH2 0xBF7 JUMP JUMPDEST PUSH2 0x606 JUMP JUMPDEST SWAP1 POP SWAP2 SWAP1 POP JUMP JUMPDEST PUSH1 0x0 DUP2 SWAP1 POP SWAP2 SWAP1 POP JUMP JUMPDEST PUSH2 0xC36 DUP4 PUSH2 0xC01 JUMP JUMPDEST PUSH2 0xC4A PUSH2 0xC42 DUP3 PUSH2 0xC23 JUMP JUMPDEST DUP5 DUP5 SLOAD PUSH2 0xBA5 JUMP JUMPDEST DUP3 SSTORE POP POP POP POP JUMP JUMPDEST PUSH1 0x0 SWAP1 JUMP JUMPDEST PUSH2 0xC5F PUSH2 0xC52 JUMP JUMPDEST PUSH2 0xC6A DUP2 DUP5 DUP5 PUSH2 0xC2D JUMP JUMPDEST POP POP POP JUMP JUMPDEST JUMPDEST DUP2 DUP2 LT ISZERO PUSH2 0xC8E JUMPI PUSH2 0xC83 PUSH1 0x0 DUP3 PUSH2 0xC57 JUMP JUMPDEST PUSH1 0x1 DUP2 ADD SWAP1 POP PUSH2 0xC70 JUMP JUMPDEST POP POP JUMP JUMPDEST PUSH1 0x1F DUP3 GT ISZERO PUSH2 0xCD3 JUMPI PUSH2 0xCA4 DUP2 PUSH2 0xB73 JUMP JUMPDEST PUSH2 0xCAD DUP5 PUSH2 0xB88 JUMP JUMPDEST DUP2 ADD PUSH1 0x20 DUP6 LT ISZERO PUSH2 0xCBC JUMPI DUP2 SWAP1 POP JUMPDEST PUSH2 0xCD0 PUSH2 0xCC8 DUP6 PUSH2 0xB88 JUMP JUMPDEST DUP4 ADD DUP3 PUSH2 0xC6F JUMP JUMPDEST POP POP JUMPDEST POP POP POP JUMP JUMPDEST PUSH1 0x0 DUP3 DUP3 SHR SWAP1 POP SWAP3 SWAP2 POP POP JUMP JUMPDEST PUSH1 0x0 PUSH2 0xCF6 PUSH1 0x0 NOT DUP5 PUSH1 0x8 MUL PUSH2 0xCD8 JUMP JUMPDEST NOT DUP1 DUP4 AND SWAP2 POP POP SWAP3 SWAP2 POP POP JUMP JUMPDEST PUSH1 0x0 PUSH2 0xD0F DUP4 DUP4 PUSH2 0xCE5 JUMP JUMPDEST SWAP2 POP DUP3 PUSH1 0x2 MUL DUP3 OR SWAP1 POP SWAP3 SWAP2 POP POP JUMP JUMPDEST PUSH2 0xD28 DUP3 PUSH2 0x678 JUMP JUMPDEST PUSH8 0xFFFFFFFFFFFFFFFF DUP2 GT ISZERO PUSH2 0xD41 JUMPI PUSH2 0xD40 PUSH2 0x742 JUMP JUMPDEST JUMPDEST PUSH2 0xD4B DUP3 SLOAD PUSH2 0xB27 JUMP JUMPDEST PUSH2 0xD56 DUP3 DUP3 DUP6 PUSH2 0xC92 JUMP JUMPDEST PUSH1 0x0 PUSH1 0x20 SWAP1 POP PUSH1 0x1F DUP4 GT PUSH1 0x1 DUP2 EQ PUSH2 0xD89 JUMPI PUSH1 0x0 DUP5 ISZERO PUSH2 0xD77 JUMPI DUP3 DUP8 ADD MLOAD SWAP1 POP JUMPDEST PUSH2 0xD81 DUP6 DUP3 PUSH2 0xD03 JUMP JUMPDEST DUP7 SSTORE POP PUSH2 0xDE9 JUMP JUMPDEST PUSH1 0x1F NOT DUP5 AND PUSH2 0xD97 DUP7 PUSH2 0xB73 JUMP JUMPDEST PUSH1 0x0 JUMPDEST DUP3 DUP2 LT ISZERO PUSH2 0xDBF JUMPI DUP5 DUP10 ADD MLOAD DUP3 SSTORE PUSH1 0x1 DUP3 ADD SWAP2 POP PUSH1 0x20 DUP6 ADD SWAP5 POP PUSH1 0x20 DUP2 ADD SWAP1 POP PUSH2 0xD9A JUMP JUMPDEST DUP7 DUP4 LT ISZERO PUSH2 0xDDC JUMPI DUP5 DUP10 ADD MLOAD PUSH2 0xDD8 PUSH1 0x1F DUP10 AND DUP3 PUSH2 0xCE5 JUMP JUMPDEST DUP4 SSTORE POP JUMPDEST PUSH1 0x1 PUSH1 0x2 DUP9 MUL ADD DUP9 SSTORE POP POP POP JUMPDEST POP POP POP POP POP POP JUMP JUMPDEST PUSH32 0x4E487B7100000000000000000000000000000000000000000000000000000000 PUSH1 0x0 MSTORE PUSH1 0x11 PUSH1 0x4 MSTORE PUSH1 0x24 PUSH1 0x0 REVERT JUMPDEST PUSH1 0x0 PUSH2 0xE2B DUP3 PUSH2 0x606 JUMP JUMPDEST SWAP2 POP PUSH2 0xE36 DUP4 PUSH2 0x606 JUMP JUMPDEST SWAP3 POP DUP3 DUP3 SUB SWAP1 POP DUP2 DUP2 GT ISZERO PUSH2 0xE4E JUMPI PUSH2 0xE4D PUSH2 0xDF1 JUMP JUMPDEST JUMPDEST SWAP3 SWAP2 POP POP JUMP JUMPDEST PUSH32 0x4E487B7100000000000000000000000000000000000000000000000000000000 PUSH1 0x0 MSTORE PUSH1 0x32 PUSH1 0x4 MSTORE PUSH1 0x24 PUSH1 0x0 REVERT JUMPDEST PUSH1 0x0 PUSH2 0xE8E DUP3 PUSH2 0x606 JUMP JUMPDEST SWAP2 POP PUSH32 0xFFFFFFFFFFFFFFFFFFFFFFFFFFFFFFFFFFFFFFFFFFFFFFFFFFFFFFFFFFFFFFFF DUP3 SUB PUSH2 0xEC0 JUMPI PUSH2 0xEBF PUSH2 0xDF1 JUMP JUMPDEST JUMPDEST PUSH1 0x1 DUP3 ADD SWAP1 POP SWAP2 SWAP1 POP JUMP INVALID LOG2 PUSH5 0x6970667358 0x22 SLT KECCAK256 0xE3 DUP11 SELFBALANCE MUL 0xB8 LOG1 0xDD 0x2A 0x29 DUP15 LOG3 0xAD SWAP8 BLOBBASEFEE 0xEF LOG1 PUSH17 0x5033B985FC042D1A3988DBC7A0338C6473 PUSH16 0x6C634300081A00330000000000000000 "
        },
        "methodIdentifiers": {
          "createRecord(string)": "db70504b",
          "deleteRecord(uint256)": "061f9811",
          "getAllRecords()": "a7f9fe72",
          "getRecord(uint256)": "03e9e609",
          "updateRecord(uint256,string)": "1c631466"
        }
      }
    }
  }
}